:0400000071EF00F0AC
:100008003982FACF08F0FBCF09F0E9CF0AF0EACF3E
:100018000BF0E1CF0CF0E2CF0DF0D9CF0EF0DACF34
:100028000FF0F3CF10F0F4CF11F0F6CF12F0F7CFB6
:1000380013F0F8CF14F0F5CF15F09EAA30D0000ECB
:10004800266E71EC08F0076E0750226E236A020EC6
:1000580022182310D8A423D0000E036E010E0EEC34
:1000680008F011D071EC08F0076E0750246E256A6D
:100078002650010D160EF324D96E000EF420DA6E08
:1000880024C0DFFF262A0B0E2664ECD7160E056E59
:10009800000E066EF6EC07F0020E0101D46F15C0D3
:1000A800F5FF14C0F8FF13C0F7FF12C0F6FF11C028
:1000B800F4FF10C0F3FF0FC0DAFF0EC0D9FF0DC068
:1000C800E2FF0CC0E1FF0BC0EAFF0AC0E9FF09C06C
:0E00D800FBFF08C0FAFF3992110022EF08F07A
:100300000001000A006400E80310274952203D2044
:1003100025750000000E936E000E8A6EFBEC06F051
:1003200055EC08F0D08EF28EF28C9D8AF28C35EC72
:1003300008F0720ED36ED3A4FED774EC04F0460E10
:10034000636E000E896E9284B780180EB712B79252
:10035000000EB86E000EB96EC00E946E000E010154
:10036000D06F000ECF6F0101D0BF08D00101D05176
:1003700018E1640E0101CF5DD8B013D0D89001010F
:10038000CF35D96E0101D035DA6E000ED926010EB7
:10039000DA22000EDE6E000EDD6E0101CF4BD02B97
:1003A000E2D7010E0101D16F000E0101D36F000EE3
:1003B000D26F000E0101CA6F000E0101C96F000E5D
:1003C000C86FF3D0695000017F6F7E6B68500001E9
:1003D0007E250101CD6F000E00017F210101CE6F4E
:1003E000D50E00016C6F010E00016D6F0B0E000148
:1003F0006E6F030E00016F6FCDC170F0CEC171F052
:10040000CCEC03F0010E8CEC07F045EC08F0D50EB7
:100410000001646F010E0001656FC4EC07F0050E6A
:100420000101CD5D290E0101CE59D8A01ED0200EAC
:100430000101CD5D4E0E0101CE59D8B016D0270E68
:100440000001796F000E00017A6F300E00017B6FA2
:10045000000E00017C6FD5EC05F00101D105D8A498
:100460001CD0000E0101D16F15D0270E0001796F4D
:10047000000E00017A6F300E00017B6F000E00014C
:100480007C6F8DEC06F00101D1510101D8A405D09B
:10049000010EE8D70101D24BD32BD8900101D23500
:1004A000D96E0101D335DA6E000ED926010EDA229B
:1004B000DE2A000EDD227DD70101D3BF64D0000EFD
:1004C0000101CC6F000ECB6F36D00101D15101017B
:1004D000D8A417D0270E0001796F000E00017A6FA3
:1004E000300E00017B6F000E00017C6F95EC05F073
:1004F0002D0E00017E6F260EE82EFED77E2FFCD734
:1005000016D0270E0001796F000E00017A6F300EB1
:1005100000017B6F000E00017C6FC4EC06F02D0E15
:1005200000017E6F260EE82EFED77E2FFCD700D06E
:100530000101CB4BCC2BD8900101D235D96E0101F2
:10054000D335DA6E000ED926010EDA22DE50010113
:10055000CB5D0101CC51800A0001806FDE50800A22
:1005600000018059D8A0B1D70101D1510101D8A40F
:1005700002D0010E01D0000E0101D16F0101D2079E
:10058000D8A0D30799D70101D3AF13D7270E000105
:10059000756F000E0001766F300E0001776F000E50
:1005A0000001786F61EC07F004D70101D451000A13
:1005B000D8B408D7010AD8B4FCD6030AD8B47CD77B
:1005C000010AF7D6000120EE01F06E51D9266F51D5
:1005D000DA22DF50D8B443D0000120EE07F06E518C
:1005E000D9266F51DA22DECF70F0DDCF71F06EC008
:1005F000D9FF6FC0DAFFDF500001726F0001725146
:100600000001606F616B000120EE07F06E51D9268A
:100610006F51DA22DECF62F0DDCF63F0A9EC07F094
:1006200060C066F061C067F0000E0001696F640E83
:10063000686FE8EC04F00001661F0001671F00010D
:10064000664B672B00017051000166250001736F36
:1006500000017151000167210001746F28D06EC044
:10066000D9FF6FC0DAFFDF500001706F00017051D9
:100670000001606F616B000120EE07F06E51D9261A
:100680006F51DA22DECF62F0DDCF63F0A9EC07F024
:1006900060C066F061C067F0000E0001696F640E13
:1006A000686FE8EC04F066C073F067C074F073C064
:1006B00070F074C071F00001D8907037713700018C
:1006C000D8907037713770C073F071C074F000014A
:1006D00020EE02F06E51D9266F51DA22DECF70F093
:1006E000DDCF71F070C0D9FF71C0DAFF73C0DFFFDA
:1006F000000120EE04F06E51D9266F51DA22DECFD0
:1007000070F0DDCF71F070C0D9FF71C0DAFF000169
:1007100074513F0BDF6E000120EE01F06E51D926BF
:100720006F51DA22DF50D8B41BD0000120EE06F062
:100730006E51D9266F51DA22DF500001706F010E21
:100740000001716F0001702B03D00001D890713748
:100750000001702FFAD7000171518A108A6E1200C1
:10076000000120EE06F06E51D9266F51DA22DF50DB
:100770000001706F010E0001716F0001702B03D03A
:100780000001D89071370001702FFAD70001715124
:10079000FF0A8A148A6E1200700E0001736F000E39
:1007A0000001746F8CD0250E00017819D8B40AD0DE
:1007B0006CC0D9FF6DC0DAFF78C0DFFF00016C4B61
:1007C0006D2B7DD0000E0001726F04D0C00E0001B1
:1007D000721313D06EC0F6FF6FC0F7FF00016E4BAF
:1007E0006F2B0800F5CF78F000017851000AD8B4DB
:1007F00074D0750AD8B4EAD762D073C0D9FF74C078
:10080000DAFFDECF75F0DDCF76F0020E0001732740
:10081000000E7423010E0001786F050E0001781997
:10082000D8B416D000017851020D010EF324F66EF3
:10083000030EF420F76E0900F5500001755D090004
:10084000F55000017659D8A003D00001782BE5D7E8
:1008500078C077F02ED000017751020D010EF324FD
:10086000F66E030EF420F76E0900F5CF62F00A0071
:10087000F5CF63F075C060F076C061F015EC06F05E
:1008800060C067F061C068F0000E00016A6F0A0E78
:10089000696F30EC07F000016751300F0001786F8D
:1008A0006CC0D9FF6DC0DAFF78C0DFFF00016C4B70
:1008B0006D2B0001770700017729D8A4CCD76EC033
:1008C000F6FF6FC0F7FF00016E4B6F2B0800F5CFEE
:1008D00078F000017851D8A466D76CC0D9FF6DC0FC
:1008E000DAFF000EDF6E1200000E896E000E8C6EB5
:1008F000000E8B6E000E926E000E946E000E956EC2
:10090000270E0001646FF50EE82EFED7642FFCD78A
:1009100000F0030E47EC05F00D0E0001646FFC0EB5
:10092000E82EFED7642FFCD7030E47EC05F0850EAA
:10093000E82EFED700F0030E47EC05F0210EE82E5E
:10094000FED700F0020E47EC05F0000E0001626FCA
:100950002C0EDEEC07F01A0E0001646FF80EE82E84
:10096000FED7642FFCD700D0000E0001626F080E86
:10097000DEEC07F01A0E0001646FF80EE82EFED7C9
:10098000642FFCD700D0000E0001626F010EDEEC78
:1009900007F01A0E0001646FF80EE82EFED7642FE0
:1009A000FCD700D0000E0001626F000EDEEC07F0F5
:1009B0001A0E0001646FF80EE82EFED7642FFCD7E4
:1009C00000D0000E0001626F0D0EDEEC07F0120089
:1009D000000E00016B6F000169AF08D00001686D67
:1009E000691FD8B0692B010E00016B6F000167AF62
:1009F00008D00001666D671FD8B0672B010E00019B
:100A00006B1B000E00016D6F000E6C6F00016851D2
:100A100000016911D8B42CD0010E00016A6F06D014
:100A20000001D8906837693700016A2B000169AF6F
:100A3000F7D70001D8906C376D370001685100017D
:100A4000665D0001695100016759D8A00AD0000114
:100A500068510001665F000169510001675B000198
:100A60006C810001D8906933683300016A2FE1D7A7
:100A700000016B510001D8B405D000016C6D6D1FF1
:100A8000D8B06D2B6CC066F06DC067F0120000012D
:100A9000616F61C060F0010E0001601700016047E6
:100AA0008B5000016019FD0B60198B6E61C060F006
:100AB0000001D8906033010E00016017000160470B
:100AC00060478B5000016019FB0B60198B6E61C091
:100AD00060F00001D89060330001D8906033010EBF
:100AE000000160178C5000016019FE0B60198C6EBC
:100AF00061C060F00001D89060330001D89060338D
:100B00000001D8906033010E0001601700016047BA
:100B10008C5000016019FD0B60198C6E63EC08F0BD
:100B2000030EE82EFED700F01200270E0001756FAD
:100B3000000E0001766F300E0001776F000E00018D
:100B4000786F61EC07F0000120EE01F07B51D926AF
:100B50007C51DA22000EDF6E000120EE01F07951A7
:100B6000D9267A51DA22000EDF6E16D079C06EF0E7
:100B70007AC06FF0E2EC02F07BC06EF07CC06FF0E8
:100B8000E2EC02F07BC0D9FF7CC0DAFFDF2A79C03B
:100B9000D9FF7AC0DAFFDF2A00D07BC0D9FF7CC042
:100BA000DAFF460EDF64E2D71200270E0001756FF0
:100BB000000E0001766F300E0001776F000E00010D
:100BC000786F61EC07F0000120EE01F07B51D9262F
:100BD0007C51DA22010EDF6E000120EE01F0795126
:100BE000D9267A51DA22010EDF6E16D079C06EF066
:100BF0007AC06FF0E2EC02F07BC06EF07CC06FF068
:100C0000E2EC02F07BC0D9FF7CC0DAFFDF2A79C0BA
:100C1000D9FF7AC0DAFFDF2A00D07BC0D9FF7CC0C1
:100C2000DAFF460EDF64E2D71200000E0001666FA5
:100C3000000E656F0001625100016311D8B42CD021
:100C4000010E0001646F06D00001D890623763374F
:100C50000001642B000163AFF7D70001D89065371E
:100C60006637000162510001605D000163510001BF
:100C70006159D8A00AD0000162510001605F0001F3
:100C800063510001615B000165810001D89063330D
:100C900062330001642FE1D765C060F066C061F087
:100CA0001200026E02C001F0010E011601468B50C7
:100CB0000118FD0B01188B6E02C001F0D8900132B3
:100CC000010E0116014601468B500118FB0B01185D
:100CD0008B6E02C001F0D8900132D8900132010E23
:100CE00001168C500118FE0B01188C6E02C001F029
:100CF000D8900132D8900132D8900132010E0116FD
:100D000001468C500118FD0B01188C6E6AEC08F03E
:100D1000030EE82EFED700F01200270E0001756FBB
:100D2000000E0001766F300E0001776F000E00019B
:100D3000786F61EC07F0000120EE01F07B51D926BD
:100D40007C51DA22000EDF6E16D079C06EF07AC0C8
:100D50006FF0E2EC02F07BC06EF07CC06FF0E2EC72
:100D600002F07BC0D9FF7CC0DAFFDF2A79C0D9FF4F
:100D70007AC0DAFFDF2A00D07BC0D9FF7CC0DAFF5F
:100D8000460EDF64E2D71200270E0001756F000ED9
:100D90000001766F300E0001776F000E0001786F52
:100DA00061EC07F0000120EE01F07951D9267A516B
:100DB000DA22000EDF6E16D079C06EF07AC06FF0C6
:100DC000E2EC02F07BC06EF07CC06FF0E2EC02F06F
:100DD0007BC0D9FF7CC0DAFFDF2A79C0D9FF7AC097
:100DE000DAFFDF2A00D079C0D9FF7AC0DAFF410EDE
:100DF000DF64E2D71200000E276E010E286E790E16
:100E0000296E0F0E2A6E780E2B6E0F0E2C6E000EB2
:100E10002D6E000E2F6EC70E2E6E000E306E010E60
:100E2000316E770E326E0F0E336E760E346E0F0EFD
:100E3000356E020E366E000E386EC70E376E270EF8
:100E400000016E6F000E00016F6FE2EC02F0300ED9
:100E500000016E6F000E00016F6FE2EC02F01200F5
:100E60000001695100016A11D8B426D0010E0001B9
:100E70006B6F06D00001D89069376A3700016B2B81
:100E800000016AAFF7D7000169510001675D0001F9
:100E90006A5100016859D8A008D0000169510001C9
:100EA000675F00016A510001685B0001D8906A33F6
:100EB000693300016B2FE7D767C067F068C068F03F
:100EC000120075C0D9FF76C0DAFF000EDF6E77C062
:100ED000D9FF78C0DAFF000EDF6E000120EE01F0CE
:100EE0007551D9267651DA22010EDF6E000120EE0F
:100EF00001F07751D9267851DA22010EDF6E75C0E4
:100F00006EF076C06FF0E2EC02F077C06EF078C061
:100F10006FF0E2EC02F012000001646F0001640562
:100F2000D8A407D0000E0001626F800EDEEC07F03F
:100F30000BD0020E00016419D8A406D0000E0001E7
:100F4000626FC00EDEEC07F0210EE82EFED700F037
:100F500012000001605100016203F3CF64F0F4CF8E
:100F600065F00001605100016303F3500001652743
:100F70000001615100016203F3500001652764C064
:100F800060F065C061F0120011D0010E0001626FC7
:100F900064C0D9FF65C0DAFFDF50DEEC07F0000166
:100FA000644B652B210EE82EFED700F064C0D9FFFC
:100FB00065C0DAFFDF50D8B41200E7D70001636FD5
:100FC000000162B102D0899C01D0898C0001633993
:100FD0000F0B0F0B47EC05F0060EE82EFED700D0E6
:100FE000000163510F0B47EC05F012000FD0010E0A
:100FF000036E05C0D9FF06C0DAFFDF500EEC08F023
:10100000054A062A210EE82EFED700F005C0D9FFBA
:1010100006C0DAFFDF50D8B41200E9D7046E03B07F
:1010200002D0899C01D0898C04380F0B0F0B51EC36
:1010300006F0060EE82EFED700D004500F0B51EC40
:1010400006F0120001EED4F0110EEE6AE806FDE1A2
:1010500000EE27F0120EEE6AE806FDE139903992B3
:10106000000EF86E00018AEF01F0C00E946EF20ED1
:10107000D36ED3A4FED7CD0EAF6E000EB06EAA868F
:10108000AC84AB88AB8EAC8A1200000E0001626F9C
:10109000010EDEEC07F01A0E0001646FF80EE82E68
:1010A000FED7642FFCD700D012009390000E7F6E05
:1010B000800E7E6E6F0E6F6E000E6E6EC70E7B6EB4
:1010C000000E7A6E12008B80030EE82EFED700F021
:1010D0008B9012008B80030EE82EFED700F08B90D1
:0A10E00012009EAAFED7AE501200C7
:020000040020DA
:08000000FFFFFFFFFFFFFFFF00
:020000040030CA
:0E000000FFC80F3F3C9D85FF0FC00FE00F4073
:00000001FF
